{
  "_format": "hh-sol-artifact-1",
  "contractName": "ArtistToken",
  "sourceName": "contracts/ArtistToken/ArtistToken.sol",
  "abi": [
    {
      "inputs": [
        {
          "internalType": "string",
          "name": "_tokenName",
          "type": "string"
        },
        {
          "internalType": "string",
          "name": "_tokenSymbol",
          "type": "string"
        },
        {
          "internalType": "uint256",
          "name": "_supply",
          "type": "uint256"
        },
        {
          "internalType": "address",
          "name": "_initalRightsSaleAddress",
          "type": "address"
        },
        {
          "internalType": "address",
          "name": "_owner",
          "type": "address"
        }
      ],
      "stateMutability": "nonpayable",
      "type": "constructor"
    },
    {
      "inputs": [],
      "name": "LSP4TokenNameNotEditable",
      "type": "error"
    },
    {
      "inputs": [],
      "name": "LSP4TokenSymbolNotEditable",
      "type": "error"
    },
    {
      "inputs": [
        {
          "internalType": "address",
          "name": "tokenOwner",
          "type": "address"
        },
        {
          "internalType": "uint256",
          "name": "authorizedAmount",
          "type": "uint256"
        },
        {
          "internalType": "address",
          "name": "operator",
          "type": "address"
        },
        {
          "internalType": "uint256",
          "name": "amount",
          "type": "uint256"
        }
      ],
      "name": "LSP7AmountExceedsAuthorizedAmount",
      "type": "error"
    },
    {
      "inputs": [
        {
          "internalType": "uint256",
          "name": "balance",
          "type": "uint256"
        },
        {
          "internalType": "address",
          "name": "tokenOwner",
          "type": "address"
        },
        {
          "internalType": "uint256",
          "name": "amount",
          "type": "uint256"
        }
      ],
      "name": "LSP7AmountExceedsBalance",
      "type": "error"
    },
    {
      "inputs": [],
      "name": "LSP7CannotSendWithAddressZero",
      "type": "error"
    },
    {
      "inputs": [],
      "name": "LSP7CannotUseAddressZeroAsOperator",
      "type": "error"
    },
    {
      "inputs": [],
      "name": "LSP7InvalidTransferBatch",
      "type": "error"
    },
    {
      "inputs": [
        {
          "internalType": "address",
          "name": "tokenReceiver",
          "type": "address"
        }
      ],
      "name": "LSP7NotifyTokenReceiverContractMissingLSP1Interface",
      "type": "error"
    },
    {
      "inputs": [
        {
          "internalType": "address",
          "name": "tokenReceiver",
          "type": "address"
        }
      ],
      "name": "LSP7NotifyTokenReceiverIsEOA",
      "type": "error"
    },
    {
      "anonymous": false,
      "inputs": [
        {
          "indexed": true,
          "internalType": "address",
          "name": "operator",
          "type": "address"
        },
        {
          "indexed": true,
          "internalType": "address",
          "name": "tokenOwner",
          "type": "address"
        },
        {
          "indexed": true,
          "internalType": "uint256",
          "name": "amount",
          "type": "uint256"
        }
      ],
      "name": "AuthorizedOperator",
      "type": "event"
    },
    {
      "anonymous": false,
      "inputs": [
        {
          "indexed": true,
          "internalType": "bytes32",
          "name": "dataKey",
          "type": "bytes32"
        }
      ],
      "name": "DataChanged",
      "type": "event"
    },
    {
      "anonymous": false,
      "inputs": [
        {
          "indexed": true,
          "internalType": "address",
          "name": "previousOwner",
          "type": "address"
        },
        {
          "indexed": true,
          "internalType": "address",
          "name": "newOwner",
          "type": "address"
        }
      ],
      "name": "OwnershipTransferred",
      "type": "event"
    },
    {
      "anonymous": false,
      "inputs": [
        {
          "indexed": true,
          "internalType": "address",
          "name": "operator",
          "type": "address"
        },
        {
          "indexed": true,
          "internalType": "address",
          "name": "tokenOwner",
          "type": "address"
        }
      ],
      "name": "RevokedOperator",
      "type": "event"
    },
    {
      "anonymous": false,
      "inputs": [
        {
          "indexed": true,
          "internalType": "address",
          "name": "operator",
          "type": "address"
        },
        {
          "indexed": true,
          "internalType": "address",
          "name": "from",
          "type": "address"
        },
        {
          "indexed": true,
          "internalType": "address",
          "name": "to",
          "type": "address"
        },
        {
          "indexed": false,
          "internalType": "uint256",
          "name": "amount",
          "type": "uint256"
        },
        {
          "indexed": false,
          "internalType": "bool",
          "name": "force",
          "type": "bool"
        },
        {
          "indexed": false,
          "internalType": "bytes",
          "name": "data",
          "type": "bytes"
        }
      ],
      "name": "Transfer",
      "type": "event"
    },
    {
      "inputs": [
        {
          "internalType": "address",
          "name": "operator",
          "type": "address"
        },
        {
          "internalType": "uint256",
          "name": "amount",
          "type": "uint256"
        }
      ],
      "name": "authorizeOperator",
      "outputs": [],
      "stateMutability": "nonpayable",
      "type": "function"
    },
    {
      "inputs": [
        {
          "internalType": "address",
          "name": "tokenOwner",
          "type": "address"
        }
      ],
      "name": "balanceOf",
      "outputs": [
        {
          "internalType": "uint256",
          "name": "",
          "type": "uint256"
        }
      ],
      "stateMutability": "view",
      "type": "function"
    },
    {
      "inputs": [],
      "name": "decimals",
      "outputs": [
        {
          "internalType": "uint256",
          "name": "",
          "type": "uint256"
        }
      ],
      "stateMutability": "view",
      "type": "function"
    },
    {
      "inputs": [
        {
          "internalType": "bytes32[]",
          "name": "dataKeys",
          "type": "bytes32[]"
        }
      ],
      "name": "getData",
      "outputs": [
        {
          "internalType": "bytes[]",
          "name": "dataValues",
          "type": "bytes[]"
        }
      ],
      "stateMutability": "view",
      "type": "function"
    },
    {
      "inputs": [
        {
          "internalType": "bytes32",
          "name": "dataKey",
          "type": "bytes32"
        }
      ],
      "name": "getData",
      "outputs": [
        {
          "internalType": "bytes",
          "name": "dataValue",
          "type": "bytes"
        }
      ],
      "stateMutability": "view",
      "type": "function"
    },
    {
      "inputs": [
        {
          "internalType": "address",
          "name": "operator",
          "type": "address"
        },
        {
          "internalType": "address",
          "name": "tokenOwner",
          "type": "address"
        }
      ],
      "name": "isOperatorFor",
      "outputs": [
        {
          "internalType": "uint256",
          "name": "",
          "type": "uint256"
        }
      ],
      "stateMutability": "view",
      "type": "function"
    },
    {
      "inputs": [],
      "name": "owner",
      "outputs": [
        {
          "internalType": "address",
          "name": "",
          "type": "address"
        }
      ],
      "stateMutability": "view",
      "type": "function"
    },
    {
      "inputs": [],
      "name": "renounceOwnership",
      "outputs": [],
      "stateMutability": "nonpayable",
      "type": "function"
    },
    {
      "inputs": [
        {
          "internalType": "address",
          "name": "operator",
          "type": "address"
        }
      ],
      "name": "revokeOperator",
      "outputs": [],
      "stateMutability": "nonpayable",
      "type": "function"
    },
    {
      "inputs": [
        {
          "internalType": "bytes32[]",
          "name": "dataKeys",
          "type": "bytes32[]"
        },
        {
          "internalType": "bytes[]",
          "name": "dataValues",
          "type": "bytes[]"
        }
      ],
      "name": "setData",
      "outputs": [],
      "stateMutability": "nonpayable",
      "type": "function"
    },
    {
      "inputs": [
        {
          "internalType": "bytes32",
          "name": "dataKey",
          "type": "bytes32"
        },
        {
          "internalType": "bytes",
          "name": "dataValue",
          "type": "bytes"
        }
      ],
      "name": "setData",
      "outputs": [],
      "stateMutability": "nonpayable",
      "type": "function"
    },
    {
      "inputs": [
        {
          "internalType": "bytes4",
          "name": "interfaceId",
          "type": "bytes4"
        }
      ],
      "name": "supportsInterface",
      "outputs": [
        {
          "internalType": "bool",
          "name": "",
          "type": "bool"
        }
      ],
      "stateMutability": "view",
      "type": "function"
    },
    {
      "inputs": [],
      "name": "totalSupply",
      "outputs": [
        {
          "internalType": "uint256",
          "name": "",
          "type": "uint256"
        }
      ],
      "stateMutability": "view",
      "type": "function"
    },
    {
      "inputs": [
        {
          "internalType": "address",
          "name": "from",
          "type": "address"
        },
        {
          "internalType": "address",
          "name": "to",
          "type": "address"
        },
        {
          "internalType": "uint256",
          "name": "amount",
          "type": "uint256"
        },
        {
          "internalType": "bool",
          "name": "force",
          "type": "bool"
        },
        {
          "internalType": "bytes",
          "name": "data",
          "type": "bytes"
        }
      ],
      "name": "transfer",
      "outputs": [],
      "stateMutability": "nonpayable",
      "type": "function"
    },
    {
      "inputs": [
        {
          "internalType": "address[]",
          "name": "from",
          "type": "address[]"
        },
        {
          "internalType": "address[]",
          "name": "to",
          "type": "address[]"
        },
        {
          "internalType": "uint256[]",
          "name": "amount",
          "type": "uint256[]"
        },
        {
          "internalType": "bool",
          "name": "force",
          "type": "bool"
        },
        {
          "internalType": "bytes[]",
          "name": "data",
          "type": "bytes[]"
        }
      ],
      "name": "transferBatch",
      "outputs": [],
      "stateMutability": "nonpayable",
      "type": "function"
    },
    {
      "inputs": [
        {
          "internalType": "address",
          "name": "newOwner",
          "type": "address"
        }
      ],
      "name": "transferOwnership",
      "outputs": [],
      "stateMutability": "nonpayable",
      "type": "function"
    }
  ],
  "bytecode": "0x60806040523480156200001157600080fd5b5060405162003f1738038062003f17833981810160405281019062000037919062000ad5565b8484836000838383806200005681620001f860201b6200099b1760201c565b50620000c67feafec4d89fa9619884b60000a4d96624a38f7ac2d8d9a604ecf07c12c77e480c60001b6040518060400160405280600481526020017fa4d96624000000000000000000000000000000000000000000000000000000008152506200030060201b62000a9a1760201c565b620001007fdeba1e292f8ba88238e10ab3c7f88bd4be4fac56cad5194b6ecceaf653468af160001b846200030060201b62000a9a1760201c565b6200013a7f2f0a68ab07768e01943a599e73362a0e17a63a72e94dd2e384d2c1d4db93275660001b836200030060201b62000a9a1760201c565b50505080600260006101000a81548160ff0219169083151502179055505050505081600760006101000a81548173ffffffffffffffffffffffffffffffffffffffff021916908373ffffffffffffffffffffffffffffffffffffffff160217905550620001e6818460006040518060400160405280600281526020017f30780000000000000000000000000000000000000000000000000000000000008152506200035460201b60201c565b826006819055505050505050620013af565b62000208620004db60201b60201c565b73ffffffffffffffffffffffffffffffffffffffff168173ffffffffffffffffffffffffffffffffffffffff1614620002fd5760008060009054906101000a900473ffffffffffffffffffffffffffffffffffffffff169050816000806101000a81548173ffffffffffffffffffffffffffffffffffffffff021916908373ffffffffffffffffffffffffffffffffffffffff1602179055508173ffffffffffffffffffffffffffffffffffffffff168173ffffffffffffffffffffffffffffffffffffffff167f8be0079c531659141344cd1fd0a4f28419497f9722a3daafe3b4186f6b6457e060405160405180910390a3505b50565b8060016000848152602001908152602001600020908162000322919062000ddc565b50817fcdf4e344c0d23d4cdd0474039d176c55b19d531070dbe17856bfb993a5b5720b60405160405180910390a25050565b600073ffffffffffffffffffffffffffffffffffffffff168473ffffffffffffffffffffffffffffffffffffffff1603620003bb576040517fd2d5ec3000000000000000000000000000000000000000000000000000000000815260040160405180910390fd5b6000620003cd6200050460201b60201c565b9050620003e3600086866200050c60201b60201c565b83600460008773ffffffffffffffffffffffffffffffffffffffff1673ffffffffffffffffffffffffffffffffffffffff168152602001908152602001600020600082825462000434919062000ef2565b925050819055508473ffffffffffffffffffffffffffffffffffffffff16600073ffffffffffffffffffffffffffffffffffffffff168273ffffffffffffffffffffffffffffffffffffffff167f3997e418d2cef0b3b0e907b1e39605c3f7d32dbd061e82ea5b4a770d46a160a6878787604051620004b69392919062000fcf565b60405180910390a4620004d4600086868686620005b360201b60201c565b5050505050565b60008060009054906101000a900473ffffffffffffffffffffffffffffffffffffffff16905090565b600033905090565b600073ffffffffffffffffffffffffffffffffffffffff168373ffffffffffffffffffffffffffffffffffffffff16036200055d57806003600082825462000555919062000ef2565b925050819055505b600073ffffffffffffffffffffffffffffffffffffffff168273ffffffffffffffffffffffffffffffffffffffff1603620005ae578060036000828254620005a6919062001013565b925050819055505b505050565b620005d184636bb56a1460e01b6200076260201b62000aec1760201c565b15620006b657600085858584604051602001620005f2949392919062001105565b60405160208183030381529060405290508473ffffffffffffffffffffffffffffffffffffffff16636bb56a147fdbe2c314e1aee2970c72666f2ebe8933a8575263ea71e5ff6a9178e95d47a26f60001b836040518363ffffffff1660e01b81526004016200066392919062001172565b6000604051808303816000875af115801562000683573d6000803e3d6000fd5b505050506040513d6000823e3d601f19601f82011682018060405250810190620006ae91906200125a565b50506200075b565b816200075a5760008473ffffffffffffffffffffffffffffffffffffffff163b146200071b57836040517fa608fbb6000000000000000000000000000000000000000000000000000000008152600401620007129190620012bc565b60405180910390fd5b836040517f26c247f4000000000000000000000000000000000000000000000000000000008152600401620007519190620012bc565b60405180910390fd5b5b5050505050565b6000806301ffc9a760e01b8360405160240162000780919062001316565b604051602081830303815290604052907bffffffffffffffffffffffffffffffffffffffffffffffffffffffff19166020820180517bffffffffffffffffffffffffffffffffffffffffffffffffffffffff838183161783525050505090506000808573ffffffffffffffffffffffffffffffffffffffff16617530846040516200080c919062001333565b6000604051808303818686fa925050503d80600081146200084a576040519150601f19603f3d011682016040523d82523d6000602084013e6200084f565b606091505b50915091506020815110156200086c576000935050505062000892565b8180156200088c5750808060200190518101906200088b91906200137d565b5b93505050505b92915050565b6000604051905090565b600080fd5b600080fd5b600080fd5b600080fd5b6000601f19601f8301169050919050565b7f4e487b7100000000000000000000000000000000000000000000000000000000600052604160045260246000fd5b6200090182620008b6565b810181811067ffffffffffffffff82111715620009235762000922620008c7565b5b80604052505050565b60006200093862000898565b9050620009468282620008f6565b919050565b600067ffffffffffffffff821115620009695762000968620008c7565b5b6200097482620008b6565b9050602081019050919050565b60005b83811015620009a157808201518184015260208101905062000984565b83811115620009b1576000848401525b50505050565b6000620009ce620009c8846200094b565b6200092c565b905082815260208101848484011115620009ed57620009ec620008b1565b5b620009fa84828562000981565b509392505050565b600082601f83011262000a1a5762000a19620008ac565b5b815162000a2c848260208601620009b7565b91505092915050565b6000819050919050565b62000a4a8162000a35565b811462000a5657600080fd5b50565b60008151905062000a6a8162000a3f565b92915050565b600073ffffffffffffffffffffffffffffffffffffffff82169050919050565b600062000a9d8262000a70565b9050919050565b62000aaf8162000a90565b811462000abb57600080fd5b50565b60008151905062000acf8162000aa4565b92915050565b600080600080600060a0868803121562000af45762000af3620008a2565b5b600086015167ffffffffffffffff81111562000b155762000b14620008a7565b5b62000b238882890162000a02565b955050602086015167ffffffffffffffff81111562000b475762000b46620008a7565b5b62000b558882890162000a02565b945050604062000b688882890162000a59565b935050606062000b7b8882890162000abe565b925050608062000b8e8882890162000abe565b9150509295509295909350565b600081519050919050565b7f4e487b7100000000000000000000000000000000000000000000000000000000600052602260045260246000fd5b6000600282049050600182168062000bee57607f821691505b60208210810362000c045762000c0362000ba6565b5b50919050565b60008190508160005260206000209050919050565b60006020601f8301049050919050565b600082821b905092915050565b60006008830262000c6e7fffffffffffffffffffffffffffffffffffffffffffffffffffffffffffffffff8262000c2f565b62000c7a868362000c2f565b95508019841693508086168417925050509392505050565b6000819050919050565b600062000cbd62000cb762000cb18462000a35565b62000c92565b62000a35565b9050919050565b6000819050919050565b62000cd98362000c9c565b62000cf162000ce88262000cc4565b84845462000c3c565b825550505050565b600090565b62000d0862000cf9565b62000d1581848462000cce565b505050565b5b8181101562000d3d5762000d3160008262000cfe565b60018101905062000d1b565b5050565b601f82111562000d8c5762000d568162000c0a565b62000d618462000c1f565b8101602085101562000d71578190505b62000d8962000d808562000c1f565b83018262000d1a565b50505b505050565b600082821c905092915050565b600062000db16000198460080262000d91565b1980831691505092915050565b600062000dcc838362000d9e565b9150826002028217905092915050565b62000de78262000b9b565b67ffffffffffffffff81111562000e035762000e02620008c7565b5b62000e0f825462000bd5565b62000e1c82828562000d41565b600060209050601f83116001811462000e54576000841562000e3f578287015190505b62000e4b858262000dbe565b86555062000ebb565b601f19841662000e648662000c0a565b60005b8281101562000e8e5784890151825560018201915060208501945060208101905062000e67565b8683101562000eae578489015162000eaa601f89168262000d9e565b8355505b6001600288020188555050505b505050505050565b7f4e487b7100000000000000000000000000000000000000000000000000000000600052601160045260246000fd5b600062000eff8262000a35565b915062000f0c8362000a35565b9250827fffffffffffffffffffffffffffffffffffffffffffffffffffffffffffffffff0382111562000f445762000f4362000ec3565b5b828201905092915050565b62000f5a8162000a35565b82525050565b60008115159050919050565b62000f778162000f60565b82525050565b600082825260208201905092915050565b600062000f9b8262000b9b565b62000fa7818562000f7d565b935062000fb981856020860162000981565b62000fc481620008b6565b840191505092915050565b600060608201905062000fe6600083018662000f4f565b62000ff5602083018562000f6c565b818103604083015262001009818462000f8e565b9050949350505050565b6000620010208262000a35565b91506200102d8362000a35565b92508282101562001043576200104262000ec3565b5b828203905092915050565b60008160601b9050919050565b600062001068826200104e565b9050919050565b60006200107c826200105b565b9050919050565b62001098620010928262000a90565b6200106f565b82525050565b6000819050919050565b620010bd620010b78262000a35565b6200109e565b82525050565b600081905092915050565b6000620010db8262000b9b565b620010e78185620010c3565b9350620010f981856020860162000981565b80840191505092915050565b600062001113828762001083565b60148201915062001125828662001083565b601482019150620011378285620010a8565b602082019150620011498284620010ce565b915081905095945050505050565b6000819050919050565b6200116c8162001157565b82525050565b600060408201905062001189600083018562001161565b81810360208301526200119d818462000f8e565b90509392505050565b600067ffffffffffffffff821115620011c457620011c3620008c7565b5b620011cf82620008b6565b9050602081019050919050565b6000620011f3620011ed84620011a6565b6200092c565b905082815260208101848484011115620012125762001211620008b1565b5b6200121f84828562000981565b509392505050565b600082601f8301126200123f576200123e620008ac565b5b815162001251848260208601620011dc565b91505092915050565b600060208284031215620012735762001272620008a2565b5b600082015167ffffffffffffffff811115620012945762001293620008a7565b5b620012a28482850162001227565b91505092915050565b620012b68162000a90565b82525050565b6000602082019050620012d36000830184620012ab565b92915050565b60007fffffffff0000000000000000000000000000000000000000000000000000000082169050919050565b6200131081620012d9565b82525050565b60006020820190506200132d600083018462001305565b92915050565b6000620013418284620010ce565b915081905092915050565b620013578162000f60565b81146200136357600080fd5b50565b60008151905062001377816200134c565b92915050565b600060208284031215620013965762001395620008a2565b5b6000620013a68482850162001366565b91505092915050565b612b5880620013bf6000396000f3fe608060405234801561001057600080fd5b50600436106101005760003560e01c8063715018a611610097578063a8a34e0a11610066578063a8a34e0a14610299578063d95b6371146102b5578063f2fde38b146102e5578063fad8b32a1461030157610100565b8063715018a614610239578063760d9bba146102435780637f23690c1461025f5780638da5cb5b1461027b57610100565b806347980aa3116100d357806347980aa31461018d5780634e3e6e9c146101a957806354f6127f146101d957806370a082311461020957610100565b806301ffc9a71461010557806314a6e2931461013557806318160ddd14610151578063313ce5671461016f575b600080fd5b61011f600480360381019061011a91906116dc565b61031d565b60405161012c9190611724565b60405180910390f35b61014f600480360381019061014a9190611a64565b61037e565b005b610159610429565b6040516101669190611af5565b60405180910390f35b610177610433565b6040516101849190611af5565b60405180910390f35b6101a760048036038101906101a29190611b9a565b61045b565b005b6101c360048036038101906101be9190611bda565b610471565b6040516101d09190611d6d565b60405180910390f35b6101f360048036038101906101ee9190611d8f565b610527565b6040516102009190611e06565b60405180910390f35b610223600480360381019061021e9190611e28565b610539565b6040516102309190611af5565b60405180910390f35b610241610582565b005b61025d60048036038101906102589190611e81565b610596565b005b61027960048036038101906102749190611f18565b6106ce565b005b6102836106e4565b6040516102909190611f83565b60405180910390f35b6102b360048036038101906102ae9190612124565b61070d565b005b6102cf60048036038101906102ca919061220f565b610800565b6040516102dc9190611af5565b60405180910390f35b6102ff60048036038101906102fa9190611e28565b610902565b005b61031b60048036038101906103169190611e28565b610985565b005b600063e33f65c360e01b7bffffffffffffffffffffffffffffffffffffffffffffffffffffffff1916827bffffffffffffffffffffffffffffffffffffffffffffffffffffffff19161480610377575061037682610c17565b5b9050919050565b610386610c78565b80518251146103ca576040517f08c379a00000000000000000000000000000000000000000000000000000000081526004016103c1906122d2565b60405180910390fd5b60005b8251811015610424576104148382815181106103ec576103eb6122f2565b5b6020026020010151838381518110610407576104066122f2565b5b6020026020010151610cef565b61041d81610db5565b90506103cd565b505050565b6000600354905090565b6000600260009054906101000a900460ff16610450576012610453565b60005b60ff16905090565b61046d610466610dc2565b8383610dca565b5050565b6060815167ffffffffffffffff81111561048e5761048d611755565b5b6040519080825280602002602001820160405280156104c157816020015b60608152602001906001900390816104ac5790505b50905060005b8251811015610521576104f38382815181106104e6576104e56122f2565b5b6020026020010151610fae565b828281518110610506576105056122f2565b5b602002602001018190525061051a81610db5565b90506104c7565b50919050565b606061053282610fae565b9050919050565b6000600460008373ffffffffffffffffffffffffffffffffffffffff1673ffffffffffffffffffffffffffffffffffffffff168152602001908152602001600020549050919050565b61058a610c78565b610594600061099b565b565b60006105a0610dc2565b90508573ffffffffffffffffffffffffffffffffffffffff168173ffffffffffffffffffffffffffffffffffffffff16146106b9576000600560008873ffffffffffffffffffffffffffffffffffffffff1673ffffffffffffffffffffffffffffffffffffffff16815260200190815260200160002060008373ffffffffffffffffffffffffffffffffffffffff1673ffffffffffffffffffffffffffffffffffffffff168152602001908152602001600020549050808511156106a157868183876040517ff3a6b6910000000000000000000000000000000000000000000000000000000081526004016106989493929190612321565b60405180910390fd5b6106b7878387846106b29190612395565b610dca565b505b6106c68686868686611053565b505050505050565b6106d6610c78565b6106e08282610cef565b5050565b60008060009054906101000a900473ffffffffffffffffffffffffffffffffffffffff16905090565b8351855114158061072057508251855114155b8061072d57508051855114155b15610764576040517f263eee8d00000000000000000000000000000000000000000000000000000000815260040160405180910390fd5b60005b85518110156107f8576107e5868281518110610786576107856122f2565b5b60200260200101518683815181106107a1576107a06122f2565b5b60200260200101518684815181106107bc576107bb6122f2565b5b6020026020010151868686815181106107d8576107d76122f2565b5b6020026020010151610596565b80806107f0906123c9565b915050610767565b505050505050565b60008273ffffffffffffffffffffffffffffffffffffffff168273ffffffffffffffffffffffffffffffffffffffff160361087c57600460008373ffffffffffffffffffffffffffffffffffffffff1673ffffffffffffffffffffffffffffffffffffffff1681526020019081526020016000205490506108fc565b600560008373ffffffffffffffffffffffffffffffffffffffff1673ffffffffffffffffffffffffffffffffffffffff16815260200190815260200160002060008473ffffffffffffffffffffffffffffffffffffffff1673ffffffffffffffffffffffffffffffffffffffff1681526020019081526020016000205490505b92915050565b61090a610c78565b600073ffffffffffffffffffffffffffffffffffffffff168173ffffffffffffffffffffffffffffffffffffffff1603610979576040517f08c379a000000000000000000000000000000000000000000000000000000000815260040161097090612483565b60405180910390fd5b6109828161099b565b50565b610998610990610dc2565b826000610dca565b50565b6109a36106e4565b73ffffffffffffffffffffffffffffffffffffffff168173ffffffffffffffffffffffffffffffffffffffff1614610a975760008060009054906101000a900473ffffffffffffffffffffffffffffffffffffffff169050816000806101000a81548173ffffffffffffffffffffffffffffffffffffffff021916908373ffffffffffffffffffffffffffffffffffffffff1602179055508173ffffffffffffffffffffffffffffffffffffffff168173ffffffffffffffffffffffffffffffffffffffff167f8be0079c531659141344cd1fd0a4f28419497f9722a3daafe3b4186f6b6457e060405160405180910390a3505b50565b80600160008481526020019081526020016000209081610aba91906126af565b50817fcdf4e344c0d23d4cdd0474039d176c55b19d531070dbe17856bfb993a5b5720b60405160405180910390a25050565b6000806301ffc9a760e01b83604051602401610b089190612790565b604051602081830303815290604052907bffffffffffffffffffffffffffffffffffffffffffffffffffffffff19166020820180517bffffffffffffffffffffffffffffffffffffffffffffffffffffffff838183161783525050505090506000808573ffffffffffffffffffffffffffffffffffffffff1661753084604051610b9291906127e7565b6000604051808303818686fa925050503d8060008114610bce576040519150601f19603f3d011682016040523d82523d6000602084013e610bd3565b606091505b5091509150602081511015610bee5760009350505050610c11565b818015610c0b575080806020019051810190610c0a9190612813565b5b93505050505b92915050565b600063714df77c60e01b7bffffffffffffffffffffffffffffffffffffffffffffffffffffffff1916827bffffffffffffffffffffffffffffffffffffffffffffffffffffffff19161480610c715750610c70826112e3565b5b9050919050565b3373ffffffffffffffffffffffffffffffffffffffff16610c976106e4565b73ffffffffffffffffffffffffffffffffffffffff1614610ced576040517f08c379a0000000000000000000000000000000000000000000000000000000008152600401610ce49061288c565b60405180910390fd5b565b7fdeba1e292f8ba88238e10ab3c7f88bd4be4fac56cad5194b6ecceaf653468af160001b8203610d4b576040517f85c169bd00000000000000000000000000000000000000000000000000000000815260040160405180910390fd5b7f2f0a68ab07768e01943a599e73362a0e17a63a72e94dd2e384d2c1d4db93275660001b8203610da7576040517f76755b3800000000000000000000000000000000000000000000000000000000815260040160405180910390fd5b610db18282610a9a565b5050565b6000600182019050919050565b600033905090565b600073ffffffffffffffffffffffffffffffffffffffff168273ffffffffffffffffffffffffffffffffffffffff1603610e30576040517f6355e76600000000000000000000000000000000000000000000000000000000815260040160405180910390fd5b8273ffffffffffffffffffffffffffffffffffffffff168273ffffffffffffffffffffffffffffffffffffffff160315610fa95780600560008573ffffffffffffffffffffffffffffffffffffffff1673ffffffffffffffffffffffffffffffffffffffff16815260200190815260200160002060008473ffffffffffffffffffffffffffffffffffffffff1673ffffffffffffffffffffffffffffffffffffffff1681526020019081526020016000208190555060008114610f4d57808373ffffffffffffffffffffffffffffffffffffffff168373ffffffffffffffffffffffffffffffffffffffff167fd66aff874162a96578e919097b6f6d153dfd89a5cec41bb331fdb0c4aec16e2c60405160405180910390a4610fa8565b8273ffffffffffffffffffffffffffffffffffffffff168273ffffffffffffffffffffffffffffffffffffffff167f50546e66e5f44d728365dc3908c63bc5cfeeab470722c1677e3073a6ac294aa160405160405180910390a35b5b505050565b6060600160008381526020019081526020016000208054610fce906124d2565b80601f0160208091040260200160405190810160405280929190818152602001828054610ffa906124d2565b80156110475780601f1061101c57610100808354040283529160200191611047565b820191906000526020600020905b81548152906001019060200180831161102a57829003601f168201915b50505050509050919050565b600073ffffffffffffffffffffffffffffffffffffffff168573ffffffffffffffffffffffffffffffffffffffff1614806110ba5750600073ffffffffffffffffffffffffffffffffffffffff168473ffffffffffffffffffffffffffffffffffffffff16145b156110f1576040517fd2d5ec3000000000000000000000000000000000000000000000000000000000815260040160405180910390fd5b6000600460008773ffffffffffffffffffffffffffffffffffffffff1673ffffffffffffffffffffffffffffffffffffffff1681526020019081526020016000205490508084111561117e578086856040517f08d47949000000000000000000000000000000000000000000000000000000008152600401611175939291906128ac565b60405180910390fd5b6000611188610dc2565b905061119587878761134d565b84600460008973ffffffffffffffffffffffffffffffffffffffff1673ffffffffffffffffffffffffffffffffffffffff16815260200190815260200160002060008282546111e49190612395565b9250508190555084600460008873ffffffffffffffffffffffffffffffffffffffff1673ffffffffffffffffffffffffffffffffffffffff168152602001908152602001600020600082825461123a91906128e3565b925050819055508573ffffffffffffffffffffffffffffffffffffffff168773ffffffffffffffffffffffffffffffffffffffff168273ffffffffffffffffffffffffffffffffffffffff167f3997e418d2cef0b3b0e907b1e39605c3f7d32dbd061e82ea5b4a770d46a160a68888886040516112b993929190612939565b60405180910390a46112cd878787866113ee565b6112da87878787876114dd565b50505050505050565b60007f01ffc9a7000000000000000000000000000000000000000000000000000000007bffffffffffffffffffffffffffffffffffffffffffffffffffffffff1916827bffffffffffffffffffffffffffffffffffffffffffffffffffffffff1916149050919050565b600073ffffffffffffffffffffffffffffffffffffffff168373ffffffffffffffffffffffffffffffffffffffff160361139b57806003600082825461139391906128e3565b925050819055505b600073ffffffffffffffffffffffffffffffffffffffff168273ffffffffffffffffffffffffffffffffffffffff16036113e95780600360008282546113e19190612395565b925050819055505b505050565b6113ff84636bb56a1460e01b610aec565b156114d75760008484848460405160200161141d94939291906129e0565b60405160208183030381529060405290508473ffffffffffffffffffffffffffffffffffffffff16636bb56a147f40b8bec57d7b5ff0dbd9e9acd0a47dfeb0101e1a203766f5ccab00445fbf39e960001b836040518363ffffffff1660e01b815260040161148c929190612a39565b6000604051808303816000875af11580156114ab573d6000803e3d6000fd5b505050506040513d6000823e3d601f19601f820116820180604052508101906114d49190612ad9565b50505b50505050565b6114ee84636bb56a1460e01b610aec565b156115ca5760008585858460405160200161150c94939291906129e0565b60405160208183030381529060405290508473ffffffffffffffffffffffffffffffffffffffff16636bb56a147fdbe2c314e1aee2970c72666f2ebe8933a8575263ea71e5ff6a9178e95d47a26f60001b836040518363ffffffff1660e01b815260040161157b929190612a39565b6000604051808303816000875af115801561159a573d6000803e3d6000fd5b505050506040513d6000823e3d601f19601f820116820180604052508101906115c39190612ad9565b5050611669565b816116685760008473ffffffffffffffffffffffffffffffffffffffff163b1461162b57836040517fa608fbb60000000000000000000000000000000000000000000000000000000081526004016116229190611f83565b60405180910390fd5b836040517f26c247f400000000000000000000000000000000000000000000000000000000815260040161165f9190611f83565b60405180910390fd5b5b5050505050565b6000604051905090565b600080fd5b600080fd5b60007fffffffff0000000000000000000000000000000000000000000000000000000082169050919050565b6116b981611684565b81146116c457600080fd5b50565b6000813590506116d6816116b0565b92915050565b6000602082840312156116f2576116f161167a565b5b6000611700848285016116c7565b91505092915050565b60008115159050919050565b61171e81611709565b82525050565b60006020820190506117396000830184611715565b92915050565b600080fd5b6000601f19601f8301169050919050565b7f4e487b7100000000000000000000000000000000000000000000000000000000600052604160045260246000fd5b61178d82611744565b810181811067ffffffffffffffff821117156117ac576117ab611755565b5b80604052505050565b60006117bf611670565b90506117cb8282611784565b919050565b600067ffffffffffffffff8211156117eb576117ea611755565b5b602082029050602081019050919050565b600080fd5b6000819050919050565b61181481611801565b811461181f57600080fd5b50565b6000813590506118318161180b565b92915050565b600061184a611845846117d0565b6117b5565b9050808382526020820190506020840283018581111561186d5761186c6117fc565b5b835b8181101561189657806118828882611822565b84526020840193505060208101905061186f565b5050509392505050565b600082601f8301126118b5576118b461173f565b5b81356118c5848260208601611837565b91505092915050565b600067ffffffffffffffff8211156118e9576118e8611755565b5b602082029050602081019050919050565b600080fd5b600067ffffffffffffffff82111561191a57611919611755565b5b61192382611744565b9050602081019050919050565b82818337600083830152505050565b600061195261194d846118ff565b6117b5565b90508281526020810184848401111561196e5761196d6118fa565b5b611979848285611930565b509392505050565b600082601f8301126119965761199561173f565b5b81356119a684826020860161193f565b91505092915050565b60006119c26119bd846118ce565b6117b5565b905080838252602082019050602084028301858111156119e5576119e46117fc565b5b835b81811015611a2c57803567ffffffffffffffff811115611a0a57611a0961173f565b5b808601611a178982611981565b855260208501945050506020810190506119e7565b5050509392505050565b600082601f830112611a4b57611a4a61173f565b5b8135611a5b8482602086016119af565b91505092915050565b60008060408385031215611a7b57611a7a61167a565b5b600083013567ffffffffffffffff811115611a9957611a9861167f565b5b611aa5858286016118a0565b925050602083013567ffffffffffffffff811115611ac657611ac561167f565b5b611ad285828601611a36565b9150509250929050565b6000819050919050565b611aef81611adc565b82525050565b6000602082019050611b0a6000830184611ae6565b92915050565b600073ffffffffffffffffffffffffffffffffffffffff82169050919050565b6000611b3b82611b10565b9050919050565b611b4b81611b30565b8114611b5657600080fd5b50565b600081359050611b6881611b42565b92915050565b611b7781611adc565b8114611b8257600080fd5b50565b600081359050611b9481611b6e565b92915050565b60008060408385031215611bb157611bb061167a565b5b6000611bbf85828601611b59565b9250506020611bd085828601611b85565b9150509250929050565b600060208284031215611bf057611bef61167a565b5b600082013567ffffffffffffffff811115611c0e57611c0d61167f565b5b611c1a848285016118a0565b91505092915050565b600081519050919050565b600082825260208201905092915050565b6000819050602082019050919050565b600081519050919050565b600082825260208201905092915050565b60005b83811015611c89578082015181840152602081019050611c6e565b83811115611c98576000848401525b50505050565b6000611ca982611c4f565b611cb38185611c5a565b9350611cc3818560208601611c6b565b611ccc81611744565b840191505092915050565b6000611ce38383611c9e565b905092915050565b6000602082019050919050565b6000611d0382611c23565b611d0d8185611c2e565b935083602082028501611d1f85611c3f565b8060005b85811015611d5b5784840389528151611d3c8582611cd7565b9450611d4783611ceb565b925060208a01995050600181019050611d23565b50829750879550505050505092915050565b60006020820190508181036000830152611d878184611cf8565b905092915050565b600060208284031215611da557611da461167a565b5b6000611db384828501611822565b91505092915050565b600082825260208201905092915050565b6000611dd882611c4f565b611de28185611dbc565b9350611df2818560208601611c6b565b611dfb81611744565b840191505092915050565b60006020820190508181036000830152611e208184611dcd565b905092915050565b600060208284031215611e3e57611e3d61167a565b5b6000611e4c84828501611b59565b91505092915050565b611e5e81611709565b8114611e6957600080fd5b50565b600081359050611e7b81611e55565b92915050565b600080600080600060a08688031215611e9d57611e9c61167a565b5b6000611eab88828901611b59565b9550506020611ebc88828901611b59565b9450506040611ecd88828901611b85565b9350506060611ede88828901611e6c565b925050608086013567ffffffffffffffff811115611eff57611efe61167f565b5b611f0b88828901611981565b9150509295509295909350565b60008060408385031215611f2f57611f2e61167a565b5b6000611f3d85828601611822565b925050602083013567ffffffffffffffff811115611f5e57611f5d61167f565b5b611f6a85828601611981565b9150509250929050565b611f7d81611b30565b82525050565b6000602082019050611f986000830184611f74565b92915050565b600067ffffffffffffffff821115611fb957611fb8611755565b5b602082029050602081019050919050565b6000611fdd611fd884611f9e565b6117b5565b9050808382526020820190506020840283018581111561200057611fff6117fc565b5b835b8181101561202957806120158882611b59565b845260208401935050602081019050612002565b5050509392505050565b600082601f8301126120485761204761173f565b5b8135612058848260208601611fca565b91505092915050565b600067ffffffffffffffff82111561207c5761207b611755565b5b602082029050602081019050919050565b60006120a061209b84612061565b6117b5565b905080838252602082019050602084028301858111156120c3576120c26117fc565b5b835b818110156120ec57806120d88882611b85565b8452602084019350506020810190506120c5565b5050509392505050565b600082601f83011261210b5761210a61173f565b5b813561211b84826020860161208d565b91505092915050565b600080600080600060a086880312156121405761213f61167a565b5b600086013567ffffffffffffffff81111561215e5761215d61167f565b5b61216a88828901612033565b955050602086013567ffffffffffffffff81111561218b5761218a61167f565b5b61219788828901612033565b945050604086013567ffffffffffffffff8111156121b8576121b761167f565b5b6121c4888289016120f6565b93505060606121d588828901611e6c565b925050608086013567ffffffffffffffff8111156121f6576121f561167f565b5b61220288828901611a36565b9150509295509295909350565b600080604083850312156122265761222561167a565b5b600061223485828601611b59565b925050602061224585828601611b59565b9150509250929050565b600082825260208201905092915050565b7f4b657973206c656e677468206e6f7420657175616c20746f2076616c7565732060008201527f6c656e6774680000000000000000000000000000000000000000000000000000602082015250565b60006122bc60268361224f565b91506122c782612260565b604082019050919050565b600060208201905081810360008301526122eb816122af565b9050919050565b7f4e487b7100000000000000000000000000000000000000000000000000000000600052603260045260246000fd5b60006080820190506123366000830187611f74565b6123436020830186611ae6565b6123506040830185611f74565b61235d6060830184611ae6565b95945050505050565b7f4e487b7100000000000000000000000000000000000000000000000000000000600052601160045260246000fd5b60006123a082611adc565b91506123ab83611adc565b9250828210156123be576123bd612366565b5b828203905092915050565b60006123d482611adc565b91507fffffffffffffffffffffffffffffffffffffffffffffffffffffffffffffffff820361240657612405612366565b5b600182019050919050565b7f4f776e61626c653a206e6577206f776e657220697320746865207a65726f206160008201527f6464726573730000000000000000000000000000000000000000000000000000602082015250565b600061246d60268361224f565b915061247882612411565b604082019050919050565b6000602082019050818103600083015261249c81612460565b9050919050565b7f4e487b7100000000000000000000000000000000000000000000000000000000600052602260045260246000fd5b600060028204905060018216806124ea57607f821691505b6020821081036124fd576124fc6124a3565b5b50919050565b60008190508160005260206000209050919050565b60006020601f8301049050919050565b600082821b905092915050565b6000600883026125657fffffffffffffffffffffffffffffffffffffffffffffffffffffffffffffffff82612528565b61256f8683612528565b95508019841693508086168417925050509392505050565b6000819050919050565b60006125ac6125a76125a284611adc565b612587565b611adc565b9050919050565b6000819050919050565b6125c683612591565b6125da6125d2826125b3565b848454612535565b825550505050565b600090565b6125ef6125e2565b6125fa8184846125bd565b505050565b5b8181101561261e576126136000826125e7565b600181019050612600565b5050565b601f8211156126635761263481612503565b61263d84612518565b8101602085101561264c578190505b61266061265885612518565b8301826125ff565b50505b505050565b600082821c905092915050565b600061268660001984600802612668565b1980831691505092915050565b600061269f8383612675565b9150826002028217905092915050565b6126b882611c4f565b67ffffffffffffffff8111156126d1576126d0611755565b5b6126db82546124d2565b6126e6828285612622565b600060209050601f8311600181146127195760008415612707578287015190505b6127118582612693565b865550612779565b601f19841661272786612503565b60005b8281101561274f5784890151825560018201915060208501945060208101905061272a565b8683101561276c5784890151612768601f891682612675565b8355505b6001600288020188555050505b505050505050565b61278a81611684565b82525050565b60006020820190506127a56000830184612781565b92915050565b600081905092915050565b60006127c182611c4f565b6127cb81856127ab565b93506127db818560208601611c6b565b80840191505092915050565b60006127f382846127b6565b915081905092915050565b60008151905061280d81611e55565b92915050565b6000602082840312156128295761282861167a565b5b6000612837848285016127fe565b91505092915050565b7f4f776e61626c653a2063616c6c6572206973206e6f7420746865206f776e6572600082015250565b600061287660208361224f565b915061288182612840565b602082019050919050565b600060208201905081810360008301526128a581612869565b9050919050565b60006060820190506128c16000830186611ae6565b6128ce6020830185611f74565b6128db6040830184611ae6565b949350505050565b60006128ee82611adc565b91506128f983611adc565b9250827fffffffffffffffffffffffffffffffffffffffffffffffffffffffffffffffff0382111561292e5761292d612366565b5b828201905092915050565b600060608201905061294e6000830186611ae6565b61295b6020830185611715565b818103604083015261296d8184611dcd565b9050949350505050565b60008160601b9050919050565b600061298f82612977565b9050919050565b60006129a182612984565b9050919050565b6129b96129b482611b30565b612996565b82525050565b6000819050919050565b6129da6129d582611adc565b6129bf565b82525050565b60006129ec82876129a8565b6014820191506129fc82866129a8565b601482019150612a0c82856129c9565b602082019150612a1c82846127b6565b915081905095945050505050565b612a3381611801565b82525050565b6000604082019050612a4e6000830185612a2a565b8181036020830152612a608184611dcd565b90509392505050565b6000612a7c612a77846118ff565b6117b5565b905082815260208101848484011115612a9857612a976118fa565b5b612aa3848285611c6b565b509392505050565b600082601f830112612ac057612abf61173f565b5b8151612ad0848260208601612a69565b91505092915050565b600060208284031215612aef57612aee61167a565b5b600082015167ffffffffffffffff811115612b0d57612b0c61167f565b5b612b1984828501612aab565b9150509291505056fea2646970667358221220255b1559685eaccfac1ecbac68e193acc566dd51167e0eede12ed057dd07d75f64736f6c634300080f0033",
  "linkReferences": {},
  "deployedLinkReferences": {}
}