{
  "_format": "hh-sol-artifact-1",
  "contractName": "ArtistTokenSale",
  "sourceName": "contracts/ArtistToken/ArtistTokenSale.sol",
  "abi": [
    {
      "inputs": [
        {
          "internalType": "address",
          "name": "_admin",
          "type": "address"
        }
      ],
      "stateMutability": "nonpayable",
      "type": "constructor"
    },
    {
      "anonymous": false,
      "inputs": [
        {
          "indexed": true,
          "internalType": "address",
          "name": "artistAddress",
          "type": "address"
        },
        {
          "indexed": true,
          "internalType": "uint256",
          "name": "buyAmount",
          "type": "uint256"
        }
      ],
      "name": "BuyArtistTokensEvent",
      "type": "event"
    },
    {
      "anonymous": false,
      "inputs": [
        {
          "indexed": true,
          "internalType": "address",
          "name": "artistAddress",
          "type": "address"
        },
        {
          "indexed": true,
          "internalType": "address",
          "name": "artistTokenAddress",
          "type": "address"
        },
        {
          "indexed": true,
          "internalType": "uint256",
          "name": "pricePerToken",
          "type": "uint256"
        }
      ],
      "name": "CreateSaleEvent",
      "type": "event"
    },
    {
      "anonymous": false,
      "inputs": [
        {
          "indexed": true,
          "internalType": "address",
          "name": "artistAddress",
          "type": "address"
        }
      ],
      "name": "StartSaleEvent",
      "type": "event"
    },
    {
      "anonymous": false,
      "inputs": [
        {
          "indexed": true,
          "internalType": "address",
          "name": "artistAddress",
          "type": "address"
        }
      ],
      "name": "StopSaleEvent",
      "type": "event"
    },
    {
      "inputs": [],
      "name": "ArtistClaim",
      "outputs": [],
      "stateMutability": "nonpayable",
      "type": "function"
    },
    {
      "inputs": [
        {
          "internalType": "address",
          "name": "_artistAddress",
          "type": "address"
        }
      ],
      "name": "BuyArtistTokens",
      "outputs": [],
      "stateMutability": "payable",
      "type": "function"
    },
    {
      "inputs": [
        {
          "internalType": "address",
          "name": "_tokenAddress",
          "type": "address"
        },
        {
          "internalType": "address",
          "name": "_artistAddress",
          "type": "address"
        }
      ],
      "name": "CreateExchange",
      "outputs": [],
      "stateMutability": "nonpayable",
      "type": "function"
    },
    {
      "inputs": [
        {
          "internalType": "address",
          "name": "_artistAddress",
          "type": "address"
        },
        {
          "internalType": "address",
          "name": "_artistTokenAddress",
          "type": "address"
        },
        {
          "internalType": "address payable",
          "name": "_exchangeAddress",
          "type": "address"
        },
        {
          "internalType": "uint256",
          "name": "_pricePerToken",
          "type": "uint256"
        },
        {
          "internalType": "uint256",
          "name": "_percentageForArtist",
          "type": "uint256"
        },
        {
          "internalType": "uint256",
          "name": "_percentageForLiquidity",
          "type": "uint256"
        },
        {
          "internalType": "uint256",
          "name": "_percentageOfCommitedFunds",
          "type": "uint256"
        },
        {
          "internalType": "uint256",
          "name": "_intervalLength",
          "type": "uint256"
        },
        {
          "internalType": "uint256",
          "name": "_intervalTotalLength",
          "type": "uint256"
        }
      ],
      "name": "CreateSale",
      "outputs": [],
      "stateMutability": "nonpayable",
      "type": "function"
    },
    {
      "inputs": [
        {
          "internalType": "address",
          "name": "_artistAddress",
          "type": "address"
        },
        {
          "internalType": "uint256",
          "name": "_amount",
          "type": "uint256"
        }
      ],
      "name": "ReturnTokens",
      "outputs": [],
      "stateMutability": "nonpayable",
      "type": "function"
    },
    {
      "inputs": [
        {
          "internalType": "uint256",
          "name": "_depositId",
          "type": "uint256"
        }
      ],
      "name": "UnlockLiquidity",
      "outputs": [],
      "stateMutability": "nonpayable",
      "type": "function"
    },
    {
      "inputs": [
        {
          "internalType": "address",
          "name": "_artistAddress",
          "type": "address"
        }
      ],
      "name": "getExchangeAddress",
      "outputs": [
        {
          "internalType": "address",
          "name": "",
          "type": "address"
        }
      ],
      "stateMutability": "view",
      "type": "function"
    },
    {
      "inputs": [
        {
          "internalType": "address",
          "name": "_artistAddress",
          "type": "address"
        }
      ],
      "name": "getSaleInfo",
      "outputs": [
        {
          "components": [
            {
              "internalType": "address",
              "name": "ArtistTokenAddress",
              "type": "address"
            },
            {
              "internalType": "address payable",
              "name": "ExchangeAddress",
              "type": "address"
            },
            {
              "internalType": "uint256",
              "name": "PricePerToken",
              "type": "uint256"
            },
            {
              "internalType": "uint256",
              "name": "PercentageForLiquidity",
              "type": "uint256"
            },
            {
              "internalType": "uint256",
              "name": "TokensForSale",
              "type": "uint256"
            },
            {
              "internalType": "uint256",
              "name": "InitialCommitedNativeTokens",
              "type": "uint256"
            },
            {
              "internalType": "uint256",
              "name": "InitialUnlockedNativeTokens",
              "type": "uint256"
            },
            {
              "internalType": "uint256",
              "name": "InitialReturnPricePerCoin",
              "type": "uint256"
            },
            {
              "internalType": "uint256",
              "name": "ReturnPriceReducePerInterval",
              "type": "uint256"
            },
            {
              "internalType": "uint256",
              "name": "LockedPerInterval",
              "type": "uint256"
            },
            {
              "internalType": "uint256",
              "name": "IntervalLength",
              "type": "uint256"
            },
            {
              "internalType": "uint256",
              "name": "IntervalTotalLength",
              "type": "uint256"
            },
            {
              "internalType": "uint256",
              "name": "TimeStart",
              "type": "uint256"
            },
            {
              "internalType": "uint256",
              "name": "ArtistLastClaimTime",
              "type": "uint256"
            },
            {
              "internalType": "uint256",
              "name": "maxTime",
              "type": "uint256"
            },
            {
              "internalType": "uint256",
              "name": "amountClaimed",
              "type": "uint256"
            },
            {
              "internalType": "uint256",
              "name": "TokenSupplyMultiplied",
              "type": "uint256"
            }
          ],
          "internalType": "struct ArtistTokenSale.Sale",
          "name": "",
          "type": "tuple"
        }
      ],
      "stateMutability": "view",
      "type": "function"
    },
    {
      "inputs": [
        {
          "internalType": "address",
          "name": "_artistAddress",
          "type": "address"
        },
        {
          "internalType": "address",
          "name": "_artistTokenAddress",
          "type": "address"
        },
        {
          "internalType": "uint256",
          "name": "_percentageForArtist",
          "type": "uint256"
        },
        {
          "internalType": "uint256",
          "name": "_percentageForLiquidity",
          "type": "uint256"
        },
        {
          "internalType": "uint256",
          "name": "_pricePerToken",
          "type": "uint256"
        }
      ],
      "name": "percentage",
      "outputs": [],
      "stateMutability": "nonpayable",
      "type": "function"
    },
    {
      "inputs": [
        {
          "internalType": "address",
          "name": "_artistAddress",
          "type": "address"
        },
        {
          "internalType": "address",
          "name": "_artistTokenAddress",
          "type": "address"
        },
        {
          "internalType": "uint256",
          "name": "_percentageForArtist",
          "type": "uint256"
        },
        {
          "internalType": "uint256",
          "name": "_percentageForLiquidity",
          "type": "uint256"
        },
        {
          "internalType": "uint256",
          "name": "_pricePerToken",
          "type": "uint256"
        }
      ],
      "name": "transferFunds",
      "outputs": [],
      "stateMutability": "nonpayable",
      "type": "function"
    }
  ],
  "bytecode": "0x60806040523480156200001157600080fd5b5060405162005130380380620051308339818101604052810190620000379190620000e9565b80600260006101000a81548173ffffffffffffffffffffffffffffffffffffffff021916908373ffffffffffffffffffffffffffffffffffffffff160217905550506200011b565b600080fd5b600073ffffffffffffffffffffffffffffffffffffffff82169050919050565b6000620000b18262000084565b9050919050565b620000c381620000a4565b8114620000cf57600080fd5b50565b600081519050620000e381620000b8565b92915050565b6000602082840312156200010257620001016200007f565b5b60006200011284828501620000d2565b91505092915050565b615005806200012b6000396000f3fe6080604052600436106200009e5760003560e01c8063b1f8bcae1162000061578063b1f8bcae146200017d578063b877de8514620001c1578063d08b3cf414620001ef578063ff563b8d146200021d578063ffd5f5f7146200024b576200009e565b8063067e89df14620000a357806343284d7314620000c35780635ee46ee914620000f1578063aafbb120146200011f578063ae205ad11462000163575b600080fd5b620000c16004803603810190620000bb9190620026e8565b62000279565b005b348015620000d057600080fd5b50620000ef6004803603810190620000e9919062002755565b620009f5565b005b348015620000fe57600080fd5b506200011d6004803603810190620001179190620027dd565b62000b50565b005b3480156200012c57600080fd5b506200014b6004803603810190620001459190620026e8565b62000fcf565b6040516200015a9190620029d7565b60405180910390f35b3480156200017057600080fd5b506200017b6200116c565b005b3480156200018a57600080fd5b50620001a96004803603810190620001a39190620026e8565b620015ab565b604051620001b8919062002a06565b60405180910390f35b348015620001ce57600080fd5b50620001ed6004803603810190620001e7919062002755565b62001616565b005b348015620001fc57600080fd5b506200021b600480360381019062000215919062002a54565b620016fc565b005b3480156200022a57600080fd5b5062000249600480360381019062000243919062002b33565b62001920565b005b3480156200025857600080fd5b5062000277600480360381019062000271919062002b7a565b62001a62565b005b600073ffffffffffffffffffffffffffffffffffffffff166000808373ffffffffffffffffffffffffffffffffffffffff1673ffffffffffffffffffffffffffffffffffffffff16815260200190815260200160002060000160009054906101000a900473ffffffffffffffffffffffffffffffffffffffff1673ffffffffffffffffffffffffffffffffffffffff16036200034c576040517f08c379a0000000000000000000000000000000000000000000000000000000008152600401620003439062002c48565b60405180910390fd5b346000808373ffffffffffffffffffffffffffffffffffffffff1673ffffffffffffffffffffffffffffffffffffffff168152602001908152602001600020600201541115620003d3576040517f08c379a0000000000000000000000000000000000000000000000000000000008152600401620003ca9062002ce0565b60405180910390fd5b60008060008373ffffffffffffffffffffffffffffffffffffffff1673ffffffffffffffffffffffffffffffffffffffff16815260200190815260200160002060040154116200045a576040517f08c379a0000000000000000000000000000000000000000000000000000000008152600401620004519062002d78565b60405180910390fd5b60008060008373ffffffffffffffffffffffffffffffffffffffff1673ffffffffffffffffffffffffffffffffffffffff16815260200190815260200160002060000160009054906101000a900473ffffffffffffffffffffffffffffffffffffffff16905060008060008473ffffffffffffffffffffffffffffffffffffffff1673ffffffffffffffffffffffffffffffffffffffff168152602001908152602001600020600201543462000511919062002df8565b90508173ffffffffffffffffffffffffffffffffffffffff166370a08231306040518263ffffffff1660e01b81526004016200054e919062002a06565b602060405180830381865afa1580156200056c573d6000803e3d6000fd5b505050506040513d601f19601f8201168201806040525081019062000592919062002e47565b811115620005d7576040517f08c379a0000000000000000000000000000000000000000000000000000000008152600401620005ce9062002ec9565b60405180910390fd5b806000808573ffffffffffffffffffffffffffffffffffffffff1673ffffffffffffffffffffffffffffffffffffffff16815260200190815260200160002060040160008282546200062a919062002eeb565b925050819055508173ffffffffffffffffffffffffffffffffffffffff1663760d9bba30338460006040518563ffffffff1660e01b815260040162000673949392919062002fb5565b600060405180830381600087803b1580156200068e57600080fd5b505af1158015620006a3573d6000803e3d6000fd5b5050505060008060008573ffffffffffffffffffffffffffffffffffffffff1673ffffffffffffffffffffffffffffffffffffffff1681526020019081526020016000206004015403620009ac5760008060008573ffffffffffffffffffffffffffffffffffffffff1673ffffffffffffffffffffffffffffffffffffffff16815260200190815260200160002060010160009054906101000a900473ffffffffffffffffffffffffffffffffffffffff169050600060648473ffffffffffffffffffffffffffffffffffffffff166370a08231306040518263ffffffff1660e01b815260040162000796919062002a06565b602060405180830381865afa158015620007b4573d6000803e3d6000fd5b505050506040513d601f19601f82011682018060405250810190620007da919062002e47565b620007e6919062003017565b90506000612710826000808973ffffffffffffffffffffffffffffffffffffffff1673ffffffffffffffffffffffffffffffffffffffff168152602001908152602001600020600301546200083c919062003017565b62000848919062002df8565b905060006064476200085b919062003017565b90506000612710826000808b73ffffffffffffffffffffffffffffffffffffffff1673ffffffffffffffffffffffffffffffffffffffff16815260200190815260200160002060030154620008b1919062003017565b620008bd919062002df8565b90508673ffffffffffffffffffffffffffffffffffffffff166347980aa386856040518363ffffffff1660e01b8152600401620008fc92919062003078565b600060405180830381600087803b1580156200091757600080fd5b505af11580156200092c573d6000803e3d6000fd5b505050508473ffffffffffffffffffffffffffffffffffffffff166355818dc682856303c322806040518463ffffffff1660e01b815260040162000972929190620030f2565b6000604051808303818588803b1580156200098c57600080fd5b505af1158015620009a1573d6000803e3d6000fd5b505050505050505050505b808373ffffffffffffffffffffffffffffffffffffffff167f04213c48d652fcb05d8677d034ddcad610592fb74ff3cf4cbb8e696e7f3f94aa60405160405180910390a3505050565b60008490506000838562000a0a91906200311f565b606462000a18919062002eeb565b9050600060648373ffffffffffffffffffffffffffffffffffffffff166318160ddd6040518163ffffffff1660e01b8152600401602060405180830381865afa15801562000a6a573d6000803e3d6000fd5b505050506040513d601f19601f8201168201806040525081019062000a90919062002e47565b62000a9c919062003017565b9050612710818362000aaf919062003017565b62000abb919062002df8565b6000808a73ffffffffffffffffffffffffffffffffffffffff1673ffffffffffffffffffffffffffffffffffffffff16815260200190815260200160002060040181905550806000808a73ffffffffffffffffffffffffffffffffffffffff1673ffffffffffffffffffffffffffffffffffffffff168152602001908152602001600020601001819055505050505050505050565b60008060003373ffffffffffffffffffffffffffffffffffffffff1673ffffffffffffffffffffffffffffffffffffffff16815260200190815260200160002060010160009054906101000a900473ffffffffffffffffffffffffffffffffffffffff1690508073ffffffffffffffffffffffffffffffffffffffff166348753764836040518263ffffffff1660e01b815260040162000bf191906200317c565b600060405180830381600087803b15801562000c0c57600080fd5b505af115801562000c21573d6000803e3d6000fd5b505050508073ffffffffffffffffffffffffffffffffffffffff16637ddced5a8273ffffffffffffffffffffffffffffffffffffffff16630930df6a30866040518363ffffffff1660e01b815260040162000c7e92919062003078565b608060405180830381865afa15801562000c9c573d6000803e3d6000fd5b505050506040513d601f19601f8201168201806040525081019062000cc29190620032e9565b602001518373ffffffffffffffffffffffffffffffffffffffff16630930df6a30876040518363ffffffff1660e01b815260040162000d0392919062003078565b608060405180830381865afa15801562000d21573d6000803e3d6000fd5b505050506040513d601f19601f8201168201806040525081019062000d479190620032e9565b604001516040518363ffffffff1660e01b815260040162000d6a9291906200331b565b600060405180830381600087803b15801562000d8557600080fd5b505af115801562000d9a573d6000803e3d6000fd5b5050505060008060003373ffffffffffffffffffffffffffffffffffffffff1673ffffffffffffffffffffffffffffffffffffffff16815260200190815260200160002060000160009054906101000a900473ffffffffffffffffffffffffffffffffffffffff1690508073ffffffffffffffffffffffffffffffffffffffff1663760d9bba30338573ffffffffffffffffffffffffffffffffffffffff16630930df6a30896040518363ffffffff1660e01b815260040162000e5f92919062003078565b608060405180830381865afa15801562000e7d573d6000803e3d6000fd5b505050506040513d601f19601f8201168201806040525081019062000ea39190620032e9565b6020015160016040518563ffffffff1660e01b815260040162000eca949392919062002fb5565b600060405180830381600087803b15801562000ee557600080fd5b505af115801562000efa573d6000803e3d6000fd5b505050503373ffffffffffffffffffffffffffffffffffffffff166108fc8373ffffffffffffffffffffffffffffffffffffffff16630930df6a30876040518363ffffffff1660e01b815260040162000f5592919062003078565b608060405180830381865afa15801562000f73573d6000803e3d6000fd5b505050506040513d601f19601f8201168201806040525081019062000f999190620032e9565b604001519081150290604051600060405180830381858888f1935050505015801562000fc9573d6000803e3d6000fd5b50505050565b62000fd9620025b6565b6000808373ffffffffffffffffffffffffffffffffffffffff1673ffffffffffffffffffffffffffffffffffffffff168152602001908152602001600020604051806102200160405290816000820160009054906101000a900473ffffffffffffffffffffffffffffffffffffffff1673ffffffffffffffffffffffffffffffffffffffff1673ffffffffffffffffffffffffffffffffffffffff1681526020016001820160009054906101000a900473ffffffffffffffffffffffffffffffffffffffff1673ffffffffffffffffffffffffffffffffffffffff1673ffffffffffffffffffffffffffffffffffffffff1681526020016002820154815260200160038201548152602001600482015481526020016005820154815260200160068201548152602001600782015481526020016008820154815260200160098201548152602001600a8201548152602001600b8201548152602001600c8201548152602001600d8201548152602001600e8201548152602001600f82015481526020016010820154815250509050919050565b60008060003373ffffffffffffffffffffffffffffffffffffffff1673ffffffffffffffffffffffffffffffffffffffff168152602001908152602001600020600a01546000803373ffffffffffffffffffffffffffffffffffffffff1673ffffffffffffffffffffffffffffffffffffffff168152602001908152602001600020600c015442620011ff919062002eeb565b6200120b919062002df8565b905060008060003373ffffffffffffffffffffffffffffffffffffffff1673ffffffffffffffffffffffffffffffffffffffff168152602001908152602001600020600a01546000803373ffffffffffffffffffffffffffffffffffffffff1673ffffffffffffffffffffffffffffffffffffffff168152602001908152602001600020600c01546000803373ffffffffffffffffffffffffffffffffffffffff1673ffffffffffffffffffffffffffffffffffffffff168152602001908152602001600020600d0154620012e1919062002eeb565b620012ed919062002df8565b905060008183620012ff919062002eeb565b90506000811162001347576040517f08c379a00000000000000000000000000000000000000000000000000000000081526004016200133e90620033be565b60405180910390fd5b6000803373ffffffffffffffffffffffffffffffffffffffff1673ffffffffffffffffffffffffffffffffffffffff168152602001908152602001600020600b01548210620013cd576040517f08c379a0000000000000000000000000000000000000000000000000000000008152600401620013c49062003456565b60405180910390fd5b60008060003373ffffffffffffffffffffffffffffffffffffffff1673ffffffffffffffffffffffffffffffffffffffff16815260200190815260200160002060000160009054906101000a900473ffffffffffffffffffffffffffffffffffffffff1690506000826000803373ffffffffffffffffffffffffffffffffffffffff1673ffffffffffffffffffffffffffffffffffffffff1681526020019081526020016000206009015462001484919062003017565b90506000803373ffffffffffffffffffffffffffffffffffffffff1673ffffffffffffffffffffffffffffffffffffffff168152602001908152602001600020600a015483620014d5919062003017565b6000803373ffffffffffffffffffffffffffffffffffffffff1673ffffffffffffffffffffffffffffffffffffffff168152602001908152602001600020600d0160008282546200152791906200311f565b925050819055508173ffffffffffffffffffffffffffffffffffffffff1663760d9bba30338460006040518563ffffffff1660e01b815260040162001570949392919062002fb5565b600060405180830381600087803b1580156200158b57600080fd5b505af1158015620015a0573d6000803e3d6000fd5b505050505050505050565b60008060008373ffffffffffffffffffffffffffffffffffffffff1673ffffffffffffffffffffffffffffffffffffffff16815260200190815260200160002060010160009054906101000a900473ffffffffffffffffffffffffffffffffffffffff169050919050565b600084905060006127106000808973ffffffffffffffffffffffffffffffffffffffff1673ffffffffffffffffffffffffffffffffffffffff16815260200190815260200160002060100154866200166f919062003017565b6200167b919062002df8565b90508173ffffffffffffffffffffffffffffffffffffffff1663760d9bba30898460016040518563ffffffff1660e01b8152600401620016bf949392919062002fb5565b600060405180830381600087803b158015620016da57600080fd5b505af1158015620016ef573d6000803e3d6000fd5b5050505050505050505050565b600260009054906101000a900473ffffffffffffffffffffffffffffffffffffffff1673ffffffffffffffffffffffffffffffffffffffff163373ffffffffffffffffffffffffffffffffffffffff16146200178f576040517f08c379a00000000000000000000000000000000000000000000000000000000081526004016200178690620034ee565b60405180910390fd5b600073ffffffffffffffffffffffffffffffffffffffff166000808b73ffffffffffffffffffffffffffffffffffffffff1673ffffffffffffffffffffffffffffffffffffffff16815260200190815260200160002060000160009054906101000a900473ffffffffffffffffffffffffffffffffffffffff1673ffffffffffffffffffffffffffffffffffffffff161462001862576040517f08c379a0000000000000000000000000000000000000000000000000000000008152600401620018599062003586565b60405180910390fd5b6064841115620018a9576040517f08c379a0000000000000000000000000000000000000000000000000000000008152600401620018a0906200361e565b60405180910390fd5b6064851115620018f0576040517f08c379a0000000000000000000000000000000000000000000000000000000008152600401620018e790620036b6565b60405180910390fd5b6000889050620019048a8a8a8a8962001dce565b620019148a8a8987878762001f67565b50505050505050505050565b60008282604051620019329062002666565b6200193f929190620036d8565b604051809103906000f0801580156200195c573d6000803e3d6000fd5b50905080600160003373ffffffffffffffffffffffffffffffffffffffff1673ffffffffffffffffffffffffffffffffffffffff16815260200190815260200160002060006101000a81548173ffffffffffffffffffffffffffffffffffffffff021916908373ffffffffffffffffffffffffffffffffffffffff160217905550806000808473ffffffffffffffffffffffffffffffffffffffff1673ffffffffffffffffffffffffffffffffffffffff16815260200190815260200160002060010160006101000a81548173ffffffffffffffffffffffffffffffffffffffff021916908373ffffffffffffffffffffffffffffffffffffffff160217905550505050565b60008060008473ffffffffffffffffffffffffffffffffffffffff1673ffffffffffffffffffffffffffffffffffffffff168152602001908152602001600020600c01544262001ab3919062002eeb565b905060008060008573ffffffffffffffffffffffffffffffffffffffff1673ffffffffffffffffffffffffffffffffffffffff168152602001908152602001600020600a01548262001b06919062002df8565b90506000808573ffffffffffffffffffffffffffffffffffffffff1673ffffffffffffffffffffffffffffffffffffffff168152602001908152602001600020600b0154811062001b8e576040517f08c379a000000000000000000000000000000000000000000000000000000000815260040162001b85906200377b565b60405180910390fd5b60008060008673ffffffffffffffffffffffffffffffffffffffff1673ffffffffffffffffffffffffffffffffffffffff16815260200190815260200160002060000160009054906101000a900473ffffffffffffffffffffffffffffffffffffffff16905060008060008773ffffffffffffffffffffffffffffffffffffffff1673ffffffffffffffffffffffffffffffffffffffff168152602001908152602001600020600801548362001c45919062003017565b90506000816000808973ffffffffffffffffffffffffffffffffffffffff1673ffffffffffffffffffffffffffffffffffffffff1681526020019081526020016000206007015462001c98919062002eeb565b90506000818762001caa919062003017565b90508373ffffffffffffffffffffffffffffffffffffffff1663760d9bba33308a60006040518563ffffffff1660e01b815260040162001cee949392919062002fb5565b600060405180830381600087803b15801562001d0957600080fd5b505af115801562001d1e573d6000803e3d6000fd5b50505050866000808a73ffffffffffffffffffffffffffffffffffffffff1673ffffffffffffffffffffffffffffffffffffffff168152602001908152602001600020600401600082825462001d7591906200311f565b925050819055503373ffffffffffffffffffffffffffffffffffffffff166108fc829081150290604051600060405180830381858888f1935050505015801562001dc3573d6000803e3d6000fd5b505050505050505050565b6000849050846000808873ffffffffffffffffffffffffffffffffffffffff1673ffffffffffffffffffffffffffffffffffffffff16815260200190815260200160002060000160006101000a81548173ffffffffffffffffffffffffffffffffffffffff021916908373ffffffffffffffffffffffffffffffffffffffff160217905550836000808873ffffffffffffffffffffffffffffffffffffffff1673ffffffffffffffffffffffffffffffffffffffff16815260200190815260200160002060010160006101000a81548173ffffffffffffffffffffffffffffffffffffffff021916908373ffffffffffffffffffffffffffffffffffffffff160217905550826000808873ffffffffffffffffffffffffffffffffffffffff1673ffffffffffffffffffffffffffffffffffffffff16815260200190815260200160002060020181905550816000808873ffffffffffffffffffffffffffffffffffffffff1673ffffffffffffffffffffffffffffffffffffffff16815260200190815260200160002060030181905550505050505050565b60008590506000858273ffffffffffffffffffffffffffffffffffffffff166318160ddd6040518163ffffffff1660e01b8152600401602060405180830381865afa15801562001fbb573d6000803e3d6000fd5b505050506040513d601f19601f8201168201806040525081019062001fe1919062002e47565b62001fed919062003017565b9050600060648262002000919062003017565b9050612710818762002013919062003017565b6200201f919062002df8565b6000808b73ffffffffffffffffffffffffffffffffffffffff1673ffffffffffffffffffffffffffffffffffffffff168152602001908152602001600020600501819055506000808a73ffffffffffffffffffffffffffffffffffffffff1673ffffffffffffffffffffffffffffffffffffffff1681526020019081526020016000206005015482620020b3919062002eeb565b6000808b73ffffffffffffffffffffffffffffffffffffffff1673ffffffffffffffffffffffffffffffffffffffff168152602001908152602001600020600601819055506000808a73ffffffffffffffffffffffffffffffffffffffff1673ffffffffffffffffffffffffffffffffffffffff168152602001908152602001600020600501546000808b73ffffffffffffffffffffffffffffffffffffffff1673ffffffffffffffffffffffffffffffffffffffff16815260200190815260200160002060060181905550600086606462002190919062002eeb565b90506000606489620021a3919062003017565b90506127108183620021b6919062003017565b620021c2919062002df8565b6000808d73ffffffffffffffffffffffffffffffffffffffff1673ffffffffffffffffffffffffffffffffffffffff16815260200190815260200160002060070181905550816000808d73ffffffffffffffffffffffffffffffffffffffff1673ffffffffffffffffffffffffffffffffffffffff16815260200190815260200160002060070181905550856000808d73ffffffffffffffffffffffffffffffffffffffff1673ffffffffffffffffffffffffffffffffffffffff168152602001908152602001600020600701546200229c919062002df8565b6000808d73ffffffffffffffffffffffffffffffffffffffff1673ffffffffffffffffffffffffffffffffffffffff168152602001908152602001600020600801819055506000808c73ffffffffffffffffffffffffffffffffffffffff1673ffffffffffffffffffffffffffffffffffffffff168152602001908152602001600020600801546000808d73ffffffffffffffffffffffffffffffffffffffff1673ffffffffffffffffffffffffffffffffffffffff16815260200190815260200160002060090181905550866000808d73ffffffffffffffffffffffffffffffffffffffff1673ffffffffffffffffffffffffffffffffffffffff168152602001908152602001600020600a0181905550856000808d73ffffffffffffffffffffffffffffffffffffffff1673ffffffffffffffffffffffffffffffffffffffff168152602001908152602001600020600b0181905550426000808d73ffffffffffffffffffffffffffffffffffffffff1673ffffffffffffffffffffffffffffffffffffffff168152602001908152602001600020600c01819055506000808c73ffffffffffffffffffffffffffffffffffffffff1673ffffffffffffffffffffffffffffffffffffffff168152602001908152602001600020600c01546000808d73ffffffffffffffffffffffffffffffffffffffff1673ffffffffffffffffffffffffffffffffffffffff168152602001908152602001600020600d01819055506000808c73ffffffffffffffffffffffffffffffffffffffff1673ffffffffffffffffffffffffffffffffffffffff168152602001908152602001600020600c0154868862002511919062003017565b6200251d91906200311f565b6000808d73ffffffffffffffffffffffffffffffffffffffff1673ffffffffffffffffffffffffffffffffffffffff168152602001908152602001600020600e018190555060008060008d73ffffffffffffffffffffffffffffffffffffffff1673ffffffffffffffffffffffffffffffffffffffff168152602001908152602001600020600f01819055505050505050505050505050565b604051806102200160405280600073ffffffffffffffffffffffffffffffffffffffff168152602001600073ffffffffffffffffffffffffffffffffffffffff1681526020016000815260200160008152602001600081526020016000815260200160008152602001600081526020016000815260200160008152602001600081526020016000815260200160008152602001600081526020016000815260200160008152602001600081525090565b611832806200379e83390190565b6000604051905090565b600080fd5b600073ffffffffffffffffffffffffffffffffffffffff82169050919050565b6000620026b08262002683565b9050919050565b620026c281620026a3565b8114620026ce57600080fd5b50565b600081359050620026e281620026b7565b92915050565b6000602082840312156200270157620027006200267e565b5b60006200271184828501620026d1565b91505092915050565b6000819050919050565b6200272f816200271a565b81146200273b57600080fd5b50565b6000813590506200274f8162002724565b92915050565b600080600080600060a086880312156200277457620027736200267e565b5b60006200278488828901620026d1565b95505060206200279788828901620026d1565b9450506040620027aa888289016200273e565b9350506060620027bd888289016200273e565b9250506080620027d0888289016200273e565b9150509295509295909350565b600060208284031215620027f657620027f56200267e565b5b600062002806848285016200273e565b91505092915050565b6200281a81620026a3565b82525050565b60006200282d8262002683565b9050919050565b6200283f8162002820565b82525050565b62002850816200271a565b82525050565b610220820160008201516200286f60008501826200280f565b50602082015162002884602085018262002834565b50604082015162002899604085018262002845565b506060820151620028ae606085018262002845565b506080820151620028c3608085018262002845565b5060a0820151620028d860a085018262002845565b5060c0820151620028ed60c085018262002845565b5060e08201516200290260e085018262002845565b506101008201516200291961010085018262002845565b506101208201516200293061012085018262002845565b506101408201516200294761014085018262002845565b506101608201516200295e61016085018262002845565b506101808201516200297561018085018262002845565b506101a08201516200298c6101a085018262002845565b506101c0820151620029a36101c085018262002845565b506101e0820151620029ba6101e085018262002845565b50610200820151620029d161020085018262002845565b50505050565b600061022082019050620029ef600083018462002856565b92915050565b62002a0081620026a3565b82525050565b600060208201905062002a1d6000830184620029f5565b92915050565b62002a2e8162002820565b811462002a3a57600080fd5b50565b60008135905062002a4e8162002a23565b92915050565b60008060008060008060008060006101208a8c03121562002a7a5762002a796200267e565b5b600062002a8a8c828d01620026d1565b995050602062002a9d8c828d01620026d1565b985050604062002ab08c828d0162002a3d565b975050606062002ac38c828d016200273e565b965050608062002ad68c828d016200273e565b95505060a062002ae98c828d016200273e565b94505060c062002afc8c828d016200273e565b93505060e062002b0f8c828d016200273e565b92505061010062002b238c828d016200273e565b9150509295985092959850929598565b6000806040838503121562002b4d5762002b4c6200267e565b5b600062002b5d85828601620026d1565b925050602062002b7085828601620026d1565b9150509250929050565b6000806040838503121562002b945762002b936200267e565b5b600062002ba485828601620026d1565b925050602062002bb7858286016200273e565b9150509250929050565b600082825260208201905092915050565b7f41727469737420646f6573206e6f74206861766520746f6b656e20616464726560008201527f7373207365740000000000000000000000000000000000000000000000000000602082015250565b600062002c3060268362002bc1565b915062002c3d8262002bd2565b604082019050919050565b6000602082019050818103600083015262002c638162002c21565b9050919050565b7f546f6b656e2070726963652069732067726561746572207468616e206e61746960008201527f766520746f6b656e207468617420686173206265656e2073656e740000000000602082015250565b600062002cc8603b8362002bc1565b915062002cd58262002c6a565b604082019050919050565b6000602082019050818103600083015262002cfb8162002cb9565b9050919050565b7f4e6f2061727469737420746f6b656e7320666f722073616c652072696768742060008201527f6e6f770000000000000000000000000000000000000000000000000000000000602082015250565b600062002d6060238362002bc1565b915062002d6d8262002d02565b604082019050919050565b6000602082019050818103600083015262002d938162002d51565b9050919050565b7f4e487b7100000000000000000000000000000000000000000000000000000000600052601260045260246000fd5b7f4e487b7100000000000000000000000000000000000000000000000000000000600052601160045260246000fd5b600062002e05826200271a565b915062002e12836200271a565b92508262002e255762002e2462002d9a565b5b828204905092915050565b60008151905062002e418162002724565b92915050565b60006020828403121562002e605762002e5f6200267e565b5b600062002e708482850162002e30565b91505092915050565b7f4e6f7420656e6f75676820746f6b656e73206c65667420746f20627579000000600082015250565b600062002eb1601d8362002bc1565b915062002ebe8262002e79565b602082019050919050565b6000602082019050818103600083015262002ee48162002ea2565b9050919050565b600062002ef8826200271a565b915062002f05836200271a565b92508282101562002f1b5762002f1a62002dc9565b5b828203905092915050565b62002f31816200271a565b82525050565b60008115159050919050565b62002f4e8162002f37565b82525050565b600082825260208201905092915050565b7f3078000000000000000000000000000000000000000000000000000000000000600082015250565b600062002f9d60028362002f54565b915062002faa8262002f65565b602082019050919050565b600060a08201905062002fcc6000830187620029f5565b62002fdb6020830186620029f5565b62002fea604083018562002f26565b62002ff9606083018462002f43565b81810360808301526200300c8162002f8e565b905095945050505050565b600062003024826200271a565b915062003031836200271a565b9250817fffffffffffffffffffffffffffffffffffffffffffffffffffffffffffffffff04831182151516156200306d576200306c62002dc9565b5b828202905092915050565b60006040820190506200308f6000830185620029f5565b6200309e602083018462002f26565b9392505050565b6000819050919050565b6000819050919050565b6000620030da620030d4620030ce84620030a5565b620030af565b6200271a565b9050919050565b620030ec81620030b9565b82525050565b600060408201905062003109600083018562002f26565b620031186020830184620030e1565b9392505050565b60006200312c826200271a565b915062003139836200271a565b9250827fffffffffffffffffffffffffffffffffffffffffffffffffffffffffffffffff0382111562003171576200317062002dc9565b5b828201905092915050565b600060208201905062003193600083018462002f26565b92915050565b600080fd5b6000601f19601f8301169050919050565b7f4e487b7100000000000000000000000000000000000000000000000000000000600052604160045260246000fd5b620031e9826200319e565b810181811067ffffffffffffffff821117156200320b576200320a620031af565b5b80604052505050565b60006200322062002674565b90506200322e8282620031de565b919050565b6200323e8162002f37565b81146200324a57600080fd5b50565b6000815190506200325e8162003233565b92915050565b6000608082840312156200327d576200327c62003199565b5b62003289608062003214565b905060006200329b848285016200324d565b6000830152506020620032b18482850162002e30565b6020830152506040620032c78482850162002e30565b6040830152506060620032dd8482850162002e30565b60608301525092915050565b6000608082840312156200330257620033016200267e565b5b6000620033128482850162003264565b91505092915050565b600060408201905062003332600083018562002f26565b62003341602083018462002f26565b9392505050565b7f6e6f7420656e6f7567682074696d65206861732070617373656420666f72206160008201527f727469737420746f20636c61696d000000000000000000000000000000000000602082015250565b6000620033a6602e8362002bc1565b9150620033b38262003348565b604082019050919050565b60006020820190508181036000830152620033d98162003397565b9050919050565b7f6e6f206d6f726520636c61696d73206176616c6961626c6520666f722061727460008201527f6973740000000000000000000000000000000000000000000000000000000000602082015250565b60006200343e60238362002bc1565b91506200344b82620033e0565b604082019050919050565b6000602082019050818103600083015262003471816200342f565b9050919050565b7f4f6e6c7920636f6e7472616374206465706c6f7965722063616e2063616c6c2060008201527f746869732066756e6374696f6e00000000000000000000000000000000000000602082015250565b6000620034d6602d8362002bc1565b9150620034e38262003478565b604082019050919050565b600060208201905081810360008301526200350981620034c7565b9050919050565b7f41727469737420746f6b656e2073616c6520697320616c72656164792063726560008201527f6174656400000000000000000000000000000000000000000000000000000000602082015250565b60006200356e60248362002bc1565b91506200357b8262003510565b604082019050919050565b60006020820190508181036000830152620035a1816200355f565b9050919050565b7f50657263656e7461676520666f72206c69717569646974792063616e6e6f742060008201527f626520686967686572207468616e203130300000000000000000000000000000602082015250565b60006200360660328362002bc1565b91506200361382620035a8565b604082019050919050565b600060208201905081810360008301526200363981620035f7565b9050919050565b7f50657263656e7461676520666f72204172746973742063616e6e6f742062652060008201527f686967686572207468616e203130300000000000000000000000000000000000602082015250565b60006200369e602f8362002bc1565b9150620036ab8262003640565b604082019050919050565b60006020820190508181036000830152620036d1816200368f565b9050919050565b6000604082019050620036ef6000830185620029f5565b620036fe6020830184620029f5565b9392505050565b7f52657665727369626c652049434f206861732066696e6973686564207769746860008201527f207468697320746f6b656e000000000000000000000000000000000000000000602082015250565b600062003763602b8362002bc1565b9150620037708262003705565b604082019050919050565b60006020820190508181036000830152620037968162003754565b905091905056fe60806040523480156200001157600080fd5b506040516200183238038062001832833981810160405281019062000037919062000172565b816000806101000a81548173ffffffffffffffffffffffffffffffffffffffff021916908373ffffffffffffffffffffffffffffffffffffffff16021790555081600b60006101000a81548173ffffffffffffffffffffffffffffffffffffffff021916908373ffffffffffffffffffffffffffffffffffffffff16021790555080600160006101000a81548173ffffffffffffffffffffffffffffffffffffffff021916908373ffffffffffffffffffffffffffffffffffffffff160217905550426006819055505050620001b9565b600080fd5b600073ffffffffffffffffffffffffffffffffffffffff82169050919050565b60006200013a826200010d565b9050919050565b6200014c816200012d565b81146200015857600080fd5b50565b6000815190506200016c8162000141565b92915050565b600080604083850312156200018c576200018b62000108565b5b60006200019c858286016200015b565b9250506020620001af858286016200015b565b9150509250929050565b61166980620001c96000396000f3fe60806040526004361061008a5760003560e01c806355818dc61161005957806355818dc61461015b5780637bc1c2a6146101775780637ddced5a146101b457806382b2e257146101dd578063fc732d4f14610208576100a9565b80630930df6a146100ae578063441a39f3146100eb578063487537641461011657806351c6590a1461013f576100a9565b366100a95734600260008282546100a1919061100d565b925050819055005b600080fd5b3480156100ba57600080fd5b506100d560048036038101906100d091906110f2565b610226565b6040516100e291906111b1565b60405180910390f35b3480156100f757600080fd5b506101006102ca565b60405161010d91906111db565b60405180910390f35b34801561012257600080fd5b5061013d600480360381019061013891906111f6565b6102d4565b005b610159600480360381019061015491906111f6565b610576565b005b61017560048036038101906101709190611223565b6106eb565b005b34801561018357600080fd5b5061019e600480360381019061019991906111f6565b610a85565b6040516101ab91906111db565b60405180910390f35b3480156101c057600080fd5b506101db60048036038101906101d69190611223565b610bd7565b005b3480156101e957600080fd5b506101f2610e98565b6040516101ff91906111db565b60405180910390f35b610210610ea2565b60405161021d91906111db565b60405180910390f35b61022e610faa565b600960008473ffffffffffffffffffffffffffffffffffffffff1673ffffffffffffffffffffffffffffffffffffffff16815260200190815260200160002060008381526020019081526020016000206040518060800160405290816000820160009054906101000a900460ff161515151581526020016001820154815260200160028201548152602001600382015481525050905092915050565b6000600254905090565b42600960003373ffffffffffffffffffffffffffffffffffffffff1673ffffffffffffffffffffffffffffffffffffffff168152602001908152602001600020600083815260200190815260200160002060030154111561036a576040517f08c379a0000000000000000000000000000000000000000000000000000000008152600401610361906112e6565b60405180910390fd5b6000600960003373ffffffffffffffffffffffffffffffffffffffff1673ffffffffffffffffffffffffffffffffffffffff16815260200190815260200160002060008381526020019081526020016000206040518060800160405290816000820160009054906101000a900460ff16151515158152602001600182015481526020016002820154815260200160038201548152505090508060200151600560008282546104189190611306565b925050819055508060400151600460008282546104359190611306565b92505081905550806020015160036000828254610452919061100d565b9250508190555080604001516002600082825461046f919061100d565b925050819055508060200151600760003373ffffffffffffffffffffffffffffffffffffffff1673ffffffffffffffffffffffffffffffffffffffff168152602001908152602001600020819055508060400151600860003373ffffffffffffffffffffffffffffffffffffffff1673ffffffffffffffffffffffffffffffffffffffff168152602001908152602001600020819055506000600960003373ffffffffffffffffffffffffffffffffffffffff1673ffffffffffffffffffffffffffffffffffffffff168152602001908152602001600020600084815260200190815260200160002060000160006101000a81548160ff0219169083151502179055505050565b3460026000828254610588919061100d565b9250508190555080600360008282546105a1919061100d565b92505081905550600b60009054906101000a900473ffffffffffffffffffffffffffffffffffffffff1673ffffffffffffffffffffffffffffffffffffffff1663760d9bba33308460006040518563ffffffff1660e01b815260040161060a94939291906113b5565b600060405180830381600087803b15801561062457600080fd5b505af1158015610638573d6000803e3d6000fd5b5050505080600760003373ffffffffffffffffffffffffffffffffffffffff1673ffffffffffffffffffffffffffffffffffffffff168152602001908152602001600020600082825461068b919061100d565b9250508190555034600860003373ffffffffffffffffffffffffffffffffffffffff1673ffffffffffffffffffffffffffffffffffffffff16815260200190815260200160002060008282546106e1919061100d565b9250508190555050565b34600460008282546106fd919061100d565b925050819055508160056000828254610716919061100d565b92505081905550600b60009054906101000a900473ffffffffffffffffffffffffffffffffffffffff1673ffffffffffffffffffffffffffffffffffffffff1663760d9bba33308560006040518563ffffffff1660e01b815260040161077f94939291906113b5565b600060405180830381600087803b15801561079957600080fd5b505af11580156107ad573d6000803e3d6000fd5b505050506001600960003373ffffffffffffffffffffffffffffffffffffffff1673ffffffffffffffffffffffffffffffffffffffff1681526020019081526020016000206000600a60003373ffffffffffffffffffffffffffffffffffffffff1673ffffffffffffffffffffffffffffffffffffffff16815260200190815260200160002054815260200190815260200160002060000160006101000a81548160ff02191690831515021790555081600960003373ffffffffffffffffffffffffffffffffffffffff1673ffffffffffffffffffffffffffffffffffffffff1681526020019081526020016000206000600a60003373ffffffffffffffffffffffffffffffffffffffff1673ffffffffffffffffffffffffffffffffffffffff1681526020019081526020016000205481526020019081526020016000206001018190555081600960003373ffffffffffffffffffffffffffffffffffffffff1673ffffffffffffffffffffffffffffffffffffffff1681526020019081526020016000206000600a60003373ffffffffffffffffffffffffffffffffffffffff1673ffffffffffffffffffffffffffffffffffffffff168152602001908152602001600020548152602001908152602001600020600201819055508042610996919061100d565b600960003373ffffffffffffffffffffffffffffffffffffffff1673ffffffffffffffffffffffffffffffffffffffff1681526020019081526020016000206000600a60003373ffffffffffffffffffffffffffffffffffffffff1673ffffffffffffffffffffffffffffffffffffffff16815260200190815260200160002054815260200190815260200160002060030181905550600a60003373ffffffffffffffffffffffffffffffffffffffff1673ffffffffffffffffffffffffffffffffffffffff1681526020019081526020016000206000815480929190610a7c9061140d565b91905055505050565b6000600b60009054906101000a900473ffffffffffffffffffffffffffffffffffffffff1673ffffffffffffffffffffffffffffffffffffffff1663760d9bba33308560006040518563ffffffff1660e01b8152600401610ae994939291906113b5565b600060405180830381600087803b158015610b0357600080fd5b505af1158015610b17573d6000803e3d6000fd5b505050506000600354600254610b2d9190611455565b90508260036000828254610b41919061100d565b92505081905550600060035482610b5891906114de565b9050600081600254610b6a9190611306565b90508060026000828254610b7e9190611306565b925050819055503373ffffffffffffffffffffffffffffffffffffffff166108fc829081150290604051600060405180830381858888f19350505050158015610bcb573d6000803e3d6000fd5b50809350505050919050565b81600760003373ffffffffffffffffffffffffffffffffffffffff1673ffffffffffffffffffffffffffffffffffffffff168152602001908152602001600020541115610c59576040517f08c379a0000000000000000000000000000000000000000000000000000000008152600401610c5090611581565b60405180910390fd5b80600860003373ffffffffffffffffffffffffffffffffffffffff1673ffffffffffffffffffffffffffffffffffffffff168152602001908152602001600020541115610cdb576040517f08c379a0000000000000000000000000000000000000000000000000000000008152600401610cd290611613565b60405180910390fd5b8160036000828254610ced9190611306565b925050819055508060026000828254610d069190611306565b9250508190555081600760003373ffffffffffffffffffffffffffffffffffffffff1673ffffffffffffffffffffffffffffffffffffffff1681526020019081526020016000206000828254610d5c9190611306565b9250508190555080600860003373ffffffffffffffffffffffffffffffffffffffff1673ffffffffffffffffffffffffffffffffffffffff1681526020019081526020016000206000828254610db29190611306565b92505081905550600b60009054906101000a900473ffffffffffffffffffffffffffffffffffffffff1673ffffffffffffffffffffffffffffffffffffffff1663760d9bba30338560006040518563ffffffff1660e01b8152600401610e1b94939291906113b5565b600060405180830381600087803b158015610e3557600080fd5b505af1158015610e49573d6000803e3d6000fd5b505050503373ffffffffffffffffffffffffffffffffffffffff166108fc829081150290604051600060405180830381858888f19350505050158015610e93573d6000803e3d6000fd5b505050565b6000600354905090565b600080600354600254610eb59190611455565b90503460026000828254610ec9919061100d565b92505081905550600060025482610ee091906114de565b9050600081600354610ef29190611306565b90508060036000828254610f069190611306565b92505081905550600b60009054906101000a900473ffffffffffffffffffffffffffffffffffffffff1673ffffffffffffffffffffffffffffffffffffffff1663760d9bba30338460006040518563ffffffff1660e01b8152600401610f6f94939291906113b5565b600060405180830381600087803b158015610f8957600080fd5b505af1158015610f9d573d6000803e3d6000fd5b5050505080935050505090565b60405180608001604052806000151581526020016000815260200160008152602001600081525090565b6000819050919050565b7f4e487b7100000000000000000000000000000000000000000000000000000000600052601160045260246000fd5b600061101882610fd4565b915061102383610fd4565b9250827fffffffffffffffffffffffffffffffffffffffffffffffffffffffffffffffff0382111561105857611057610fde565b5b828201905092915050565b600080fd5b600073ffffffffffffffffffffffffffffffffffffffff82169050919050565b600061109382611068565b9050919050565b6110a381611088565b81146110ae57600080fd5b50565b6000813590506110c08161109a565b92915050565b6110cf81610fd4565b81146110da57600080fd5b50565b6000813590506110ec816110c6565b92915050565b6000806040838503121561110957611108611063565b5b6000611117858286016110b1565b9250506020611128858286016110dd565b9150509250929050565b60008115159050919050565b61114781611132565b82525050565b61115681610fd4565b82525050565b608082016000820151611172600085018261113e565b506020820151611185602085018261114d565b506040820151611198604085018261114d565b5060608201516111ab606085018261114d565b50505050565b60006080820190506111c6600083018461115c565b92915050565b6111d581610fd4565b82525050565b60006020820190506111f060008301846111cc565b92915050565b60006020828403121561120c5761120b611063565b5b600061121a848285016110dd565b91505092915050565b6000806040838503121561123a57611239611063565b5b6000611248858286016110dd565b9250506020611259858286016110dd565b9150509250929050565b600082825260208201905092915050565b7f6c6971756964697479206c6f636b206475726174696f6e20686173206e6f742060008201527f7061737365642079657400000000000000000000000000000000000000000000602082015250565b60006112d0602a83611263565b91506112db82611274565b604082019050919050565b600060208201905081810360008301526112ff816112c3565b9050919050565b600061131182610fd4565b915061131c83610fd4565b92508282101561132f5761132e610fde565b5b828203905092915050565b61134381611088565b82525050565b61135281611132565b82525050565b600082825260208201905092915050565b7f3078000000000000000000000000000000000000000000000000000000000000600082015250565b600061139f600283611358565b91506113aa82611369565b602082019050919050565b600060a0820190506113ca600083018761133a565b6113d7602083018661133a565b6113e460408301856111cc565b6113f16060830184611349565b818103608083015261140281611392565b905095945050505050565b600061141882610fd4565b91507fffffffffffffffffffffffffffffffffffffffffffffffffffffffffffffffff820361144a57611449610fde565b5b600182019050919050565b600061146082610fd4565b915061146b83610fd4565b9250817fffffffffffffffffffffffffffffffffffffffffffffffffffffffffffffffff04831182151516156114a4576114a3610fde565b5b828202905092915050565b7f4e487b7100000000000000000000000000000000000000000000000000000000600052601260045260246000fd5b60006114e982610fd4565b91506114f483610fd4565b925082611504576115036114af565b5b828204905092915050565b7f6164647265737320646f6573206e6f74206861766520656e6f7567682061727460008201527f69737420746f6b656e73206465706f7369746564000000000000000000000000602082015250565b600061156b603483611263565b91506115768261150f565b604082019050919050565b6000602082019050818103600083015261159a8161155e565b9050919050565b7f6164647265737320646f6573206e6f74206861766520656e6f756768206e617460008201527f69766520746f6b656e73206465706f7369746564000000000000000000000000602082015250565b60006115fd603483611263565b9150611608826115a1565b604082019050919050565b6000602082019050818103600083015261162c816115f0565b905091905056fea2646970667358221220b9135b1dd52941106ade7b586c71f7d61369e66cd1799ab6d470cf01b7d7c4e764736f6c634300080f0033a264697066735822122080f7601591183170b2a66e15a6bfda78cfa8a649b3da627ae871b5b43716483264736f6c634300080f0033",
  "linkReferences": {},
  "deployedLinkReferences": {}
}